:040000008A11462FEC
:100E8C0083018A115F2F8312031385018601870169
:100E9C000800831203179E019F0130308316031341
:100EAC008500860187018312031385018601870162
:100EBC0008008A114F278A11632FFF308312031306
:100ECC0087000630F2001330F100B130F000F00B67
:100EDC006D2FF10B6D2FF20B6D2F742F83120313EB
:100EEC0087010630F2001330F100B130F000F00B46
:100EFC007D2FF10B7D2FF20B7D2F842FFF30831272
:100F0C0003138700F301F4018B2F8A1149278A11EF
:100F1C0074087304031D932F942F982F83120313BB
:100F2C000714982F013073067404031D9E2F9F2FF6
:100F3C00A32F831203138714A32F02307306740498
:100F4C00031DA92FAA2FAE2F831203130715AE2F43
:100F5C00033073067404031DB42FB52FB92F8312FD
:100F6C0003138715B92F043073067404031DBF2FA8
:100F7C00C02FC42F831203130716C42F053073061A
:100F8C007404031DCA2FCB2FCF2F83120313871684
:100F9C00CF2F063073067404031DD52FD62FDA2FEE
:100FAC00831203130717DA2F073073067404031D1B
:100FBC00E02FE12FE52F831203138717E52F06305F
:100FCC00F2001330F100B130F000F00BEB2FF10B0D
:100FDC00EB2FF20BEB2FF22F7308013EF30074088A
:100FEC000318013E003EF4008B2F8B2F632F632FD1
:040FFC008A1100282E
:02400E00D4F0EC
:00000001FF
